:0C00000032C0FECFFDCFFCCFB7C0FACF5E
:10000C00F9CFF8CFF7CF6FC0F5CFF4CFF3CFF2CF56
:10001C0053C0F0CFEFCFEECFEDCF505F381A179221
:10002C00905E1012FFBFB0BDBD0038041E00F4017D
:10003C00010001002D4E414E0000020070013600FF
:10004C00010082013800020084013A00020006001F
:10005C003C0001008C013E000000F894EE27ECBB44
:10006C00F1E0FBBFEBBFE5BFF8E1F1BDE1BD8DE019
:10007C00A2E0BB27ED938A95E9F780E094E0A0E637
:10008C00ED930197E9F7E6E4F0E0859195910097FF
:10009C0061F0A591B59105901590BF01F001059007
:1000AC000D920197E1F7FB01F0CFEFE5EDBFE4E036
:1000BC00EEBFC0E6D1E0EDC0EA93FA93E4B1F5B13E
:1000CC00ECD2F991E9911895E881E7B98BE18A9521
:1000DC00F1F7E5B7EF78E069E5BF8895EF77E5BF15
:1000EC00E1D2219608950A92AA93BA93EA93FA93CD
:1000FC00EFB7EA93E2EBE2BFF30131973F01062C35
:10010C00072859F4E9E1F0E03F01E0916A01F09130
:10011C006B01E0936E01F0936F01C9D23497CCD28E
:10012C00D0D220F4D1D210F421FE01C004C0A6E834
:10013C00B1E0D0D210C0E0E9F1E0E0938601F09399
:10014C008701B5D23F97CCD220F0B1D23F96CCD21A
:10015C0010F4E89421F8A4E8B1E0BCD2E991EFBF27
:10016C00F991E991B991A991099018950A921A926D
:10017C00FA926A937A938A939A93AA93BA93EA938C
:10018C00FA93EFB7EA93E3E8E4BD082C092809F0E9
:10019C0068C020FE2CC0AAD2AED211F0A7D2B0D229
:1001AC00A0E7B1E097D2E0917001F0917101309726
:1001BC0069F4E89422F823F820F8A7D297D2E093B8
:1001CC008001F093810192D2A6D28CD323FE0EC073
:1001DC00A2E7B1E0A3D2A0917201B0917301AA354C
:1001EC00E0E0BE0719F491D2E4E02E2605C09CD2C3
:1001FC0082D211F099D284D2A8E7B1E08FD2A0912B
:10020C007801B0917901139761F5E0E0E093780102
:10021C00E0937901AAE7B1E081D28BD2A436E0E079
:10022C00BE0759F4E0E0E0937A01E0937B0186D2BB
:10023C00309711F0689424F814C080D2F5D2D1D341
:10024C00DF01CB01E4E1FEEA63E271E4F8D371D2A1
:10025C008827992727D338D409F008F402C0E894EA
:10026C0024F8AFD1F40131964F016DD2E815F905A0
:10027C0010F488249924E991EFBFF991E991B9918F
:10028C00A9919991899179916991F9901990099015
:10029C001895C4D1E0E0EA9317DFFFD1A091680173
:1002AC00B0916901AF3FE3E0BE0729F0A0E0B4993B
:1002BC00A1E0A03011F0689406C025FE05C0E8EE60
:1002CC00F3E044D2E89425F8EDD16627772789D35B
:1002DC00DF01CB01E0E0F0E060EC7FE3B0D3AAE615
:1002EC00B1E046D3ED93FC93A0918401B0918501CC
:1002FC000BD40CF449C0DBD13897F6D110F4E4D10F
:10030C0008F021C0D4D1ECD118F4A2E8B1E006D2A7
:10031C00CED1EAD118F4A2E8B1E0DCD1A0918301EE
:10032C00AA232AF4E0E0E0938201E093830111D246
:10033C00A030E2E0BE0734F0EFEFF1E0E093820191
:10034C00F09383011BC00AD2A739E0E0BE0744F04A
:10035C00AED1B497C9D120F4AAD1B496C1D108F0CA
:10036C0007C0FCD1A659B040EED183D27E9602C014
:10037C00EEE1F0E0E0938201F0938301E9E1F0E03B
:10038C00E0938401F093850125FC2BC090D1F2976A
:10039C00ABD120F48CD1F296A3D108F009C08CD14A
:1003AC0086D1EA1BFB0B3296D4D148D2DCD108C0E3
:1003BC007ED196D120F4EFEFF3E0D5D101C0D8D1A6
:1003CC00A0917D01AA230AF4D3D1A0917C01B09114
:1003DC007D01A030E4E0BE071CF0EFEFF3E0C3D1E9
:1003EC0001C0C6D1CBD1E0938801F093890139D0FB
:1003FC00E1E0F0E0EA15FB0569F4AEE7B1E08ED17F
:10040C00C2D1A13EE1E0BE071CF0E0EEF1E0C0D1AC
:10041C00AA24BB2498D1EA15FB0559F4AEE7B1E048
:10042C0059D1B1D1D2971CF4E2E3F0E0B1D1AA24B6
:10043C00BB24A0918601B091870166D324F021FCE6
:10044C0002C025FE01C004C078D077D0689421F892
:10045C0095D1E5D1F0E0EBBDE0917C01EABD1ACF7E
:10046C00FFCF0A2C0B2809F067C097D131F0E0912F
:10047C007401F0917501309709F405C0E0E0E09348
:10048C007401E09375018ED131F0E0917601F09119
:10049C007701309709F406C0E6E7F1E0A0E0B0E0A0
:1004AC00A083B183B5991FC0E2E3F0E04FD1A091D6
:1004BC007401B0917501159778F43FD0CC24DD24EC
:1004CC006CD111F474D108F007C0E8E2F0E03ED131
:1004DC00F60131966F01F4CFA4E7B1E01FD131974B
:1004EC00E1E0F0E05F015ED119F40A2C0B2809F071
:1004FC001DC0E2E3F0E02AD1A0917601B091770122
:10050C00159778F41AD0CC24DD244CD111F44FD1AA
:10051C0008F007C0E8E2F0E019D1F60131966F015E
:10052C00F4CFA6E7B1E0FAD00ED15F010A2C0B286C
:10053C0019F0E8E3F4E040D10895C39AE0E5F0E067
:10054C0005D1C3980895E0916C01F0916D013BD1F8
:10055C00E0E0F0E0E0936201F093630139D13DD12A
:10056C00A436E0E0BE0740F03DD1E456F0402BD17C
:10057C00A0E6B1E0D3D0F3CF30D11A9738F032D116
:10058C003A9721D1A2E6B1E0C9D0F6CF2BD1E093B6
:10059C006401F0936501E0916001F0916101309785
:1005AC0079F4E0916201F0916301309731F4E2E665
:1005BC00F1E0AAE0B0E0A083B183EAE0F0E008D17A
:1005CC000895C798C698C09825FE04C0F401EE5C47
:1005DC00FF4F0FC022FE03C0E0E3F0E00AC0F401BD
:1005EC00A0E6B1E0EE0FFF1FAE0FBF1F55D1EA5DC5
:1005FC00FF4F049002BAF401309711F4C69A0DC063
:10060C00E130A0E0FA0711F4C79A07C0E230A0E08D
:10061C00FA0719F424FC9498C09A0895E6E3E8BB11
:10062C00EBECE7BBEEE7E5BBE0E0E4BBEFEFE2BBF6
:10063C00E1BBE5E0E3BFE2EBE2BFE3ECEFBDE4E0FE
:10064C00EEBDE0E0EDBDECBDE7BDE6BDEBBDEABD4A
:10065C00E9BDE8BDE2BDE4E0E5BDE3E8E4BDE0E012
:10066C00E3BDE5BFE1E4E9BFE0E8E8B9E0E0E0BF05
:10067C00E7B9EEE8E6B94FD025D1E13EA1E0FA07A3
:10068C0020F049D0E8ECF0E02DD145D01BD180D042
:10069C00E8E6F1E091D078940895E0936801F09346
:1006AC0069010895E0916801F09169010895E09164
:1006BC008001F09181010895A0916A01B0916B01C4
:1006CC000895EA17FB070895F2DF3496F5DFAE17AD
:1006DC00BF070895ED91FD913197FE93EE93089528
:1006EC00EBDFAE17BF070895E7DFEBCFE0917E019C
:1006FC00F0917F010895A0916C01B0916D01E1CF53
:10070C00E0936C01F0936D011ECFE0E0E093720179
:10071C00E09373010895A0E0B0E00895ED91FD9190
:10072C003196FE93EE930895E0916E01F0916F0176
:10073C000895A0917A01B0917B010895E091880110
:10074C00F09189010895E2E0F0E00895FA93EA93BC
:10075C004EC0A0918201B09183010895A0918001B7
:10076C00B09181010895E0937C01F0937D0108958F
:10077C00E0E0E0937C01E0937D010895E0917C0141
:10078C00F0917D010895A0917E01B0917F010895B3
:10079C00E0937E01F0937F010895A0E0B599A1E06C
:1007AC00A0300895A0E0B299A1E0A0300895E5E052
:1007BC00F0E0CE16DF060895E0937001F09371011E
:1007CC00689420F80895E0936601F093670108950A
:1007DC00E0936001F09361010895A0916601B091DE
:1007EC0067010895E0916601F09167010895E99120
:1007FC00F991309639F080ED97E00197F1F7A895D3
:10080C003197C9F70895F195E195F0400895F09569
:10081C0060957095E195FF4F6F4F7F4F0895EF2FC7
:10082C00FF27E7FDFFEF08956F2F660F660B762FFE
:10083C0008958B2F880F880B982F0895FA9FF02D11
:10084C00EB9FF00DEA9FE02DF10D0895002411248B
:10085C0090E1AA0FBB1F001C111C0E1A1F0A18F4E2
:10086C000E0E1F1E01C0A1609A9599F7FD01D001D3
:10087C00089504D0EBDF0EF4C6DF0895E894F7FF7B
:10088C0002C0C1DF6894B7FF06C0A095B095119661
:10089C0000F8039400FA0895ED91FC9111970895D6
:1008AC00689401C0E89401D09DD0182E862F612D3C
:1008BC00192E972F712D1B2EBF2FF12D1A2EAE2F07
:1008CC00E12D0895119602D0FE2F1197E199FECFDC
:1008DC00FF93FFB7F894AEBBBFBBE09AEDB3FFBF7D
:1008EC00FF91089507D01196EF93EF2F03D0EF915E
:1008FC0011970895E19B02C0A895FCCF9FB7F8947F
:10090C00AEBBBFBBE09A8DB3E81719F0EDBBE29A12
:10091C00E19A9FBF0895552342F4503811F4E0FF3B
:10092C0004C03196691F791F6BF050E8572711F4FA
:10093C005F9373C05F3F31F0660F000C579567955E
:10094C00752F08955F9300200AF073C06CC050E8B7
:10095C00192E1522880F991F9527550F879550E84A
:10096C00072E0522660F771F7527550F679508957B
:10097C00689401C0E8945F93F2DF703818F07F3F01
:10098C0008F44BC056E1571BAAF4519558300EF49D
:10099C00593030F0EFEFFFEF6FEF7FE777F91AC0C8
:1009AC0077275523B9F0EE0FFF1F661F771F5A9557
:1009BC00D1F710C07727583028F0EF2FF62F672F7C
:1009CC005850F9CF552331F076956795F795E79503
:1009DC005A95D1F700200AF41ADF5F9108956894B4
:1009EC0001C0E894309760407040B1F0002426F0CC
:1009FC00772312F400940BDF172E7EE1112032F0D6
:100A0C007A95EE0FFF1F661F111CF9CFEF2FF62FF3
:100A1C00612D5F938ADF5F910895EE27FF2766278C
:100A2C0077275F910895EFEFFFEF6FE77FEF5F910F
:100A3C000895EFEFFFEF6FE77FE75F9108955F9306
:100A4C0086DF703821F411200AF4EDCFF2CF903804
:100A5C0009F4E3CF01240894970B1BF4D4F3002082
:100A6C00F3CF792F1F932F933F934F93112411277B
:100A7C00222733274427552790E2AE17BF07860756
:100A8C00410730F0AE1BBF0B860B410B089401C025
:100A9C008894551F221F331F111CAA1FBB1F881FB0
:100AAC00441F9A9551F7F901612D4F913F912F9168
:100ABC001F91662332F0550FEE1FFF1F661F7A95AC
:100ACC0043F229DF5F91089599239AF0772342F03E
:100ADC00971748F029F4AE17BF07860720F031F0BE
:100AEC0098948894089598940894089518948894E8
:100AFC0008957723C2F7971798F3A9F7EA17FB071E
:100B0C00680788F399F3ECCF00240A160B060895B6
:00000001FF
