:0400000038C0FECF37
:10000400FDCFFCCFCDC0FACFF9CFF8CFF7CF6BC07F
:10001400F5CFF4CFF3CFF2CFF1CFF0CFEFCFEECFD8
:10002400EDCF505F381A1792905E1012FFBF010097
:10003400380402001E00F401010001002D4E414E5F
:1000440000000200020032000200740134000100CA
:100054007601360001008801380002008A013A0066
:10006400020006003C0001009A013E000000F894E2
:10007400EE27ECBBF1E0FBBFEBBFE5BFF8E1F1BD60
:10008400E1BD8DE0A2E0BB27ED938A95E9F780E01E
:1000940094E0A0E6ED930197E9F7E6E4F0E08591BA
:1000A4009591009761F0A591B59105901590BF01C8
:1000B400F00105900D920197E1F7FB01F0CFEFE518
:1000C400EDBFE4E0EEBFC0E6D1E0F4C0E881E7B9FB
:1000D4008BE18A95F1F7369A349BFECF349AE4B1DA
:1000E400F5B1219608950A92AA93BA93EA93FA93E2
:1000F400EFB7EA93E2EBE2BFF30131973F01062C3D
:10010400072859F4E9E1F0E03F01E0916E01F09134
:100114006F01E0937201F093730120FE03C069D371
:10012400D39708F012C0A0E8B1E068D36AD3A091D5
:100134008001B0918101A536E0E0BE0728F0AB9ABA
:10014400A59A689421F861D301C05FD364D336972C
:1001540067D330F460D3369667D310F423FE01C01E
:1001640004C0ACE8B1E064D310C0E0E9F1E0E0938E
:100174008C01F0938D014FD33F9756D320F04BD38E
:100184003F964ED310F4E89423F8AAE8B1E050D394
:10019400E991EFBFF991E991B991A9910990189565
:1001A4000A921A92FA926A937A938A939A93AA93E6
:1001B400BA93EA93FA93EFB7EA93E3E8E4BD082C21
:1001C400092809F05EC022FE2CC037D33BD311F0BE
:1001D40034D33FD3A4E7B1E02BD3E0917401F09181
:1001E4007501309769F4E89424F825F822F836D399
:1001F40024D3E0938601F09387011FD335D345D4EC
:1002040025FE0EC0A8E7B1E032D3A0917801B091E9
:100214007901AA35E0E0BE0719F420D3E0E12E26E7
:1002240005C027D30FD311F024D313D3E0E82E262F
:1002340027FE27C0AEE7B1E01AD320D3A436E0E00E
:10024400BE0759F4E0E0E0937E01E0937F011BD305
:10025400309711F0689426F814C015D3CBD394D4F6
:10026400DF01CB01E4E1FEEA63E271E410D506D3D9
:1002740088279927EAD350D509F008F402C0E894F6
:1002840026F827D2F40131964F01E2E0F0E0E815B8
:10029400F90510F488249924E991EFBFF991E991C3
:1002A400B991A9919991899179916991F99019904C
:1002B400099018953DD2E0E0EA9308DFE0936A01E3
:1002C400F0936B01E0916A01F0916B016627772747
:1002D4005BD4DF01CB01E6E6F6E666EE7FE3D7D436
:1002E400DF01CB01E0E0F0E068EC71E4B1D37FD44E
:1002F400A6E9B1E012D4ED93FC93A0919601B091DC
:1003040097012AD54CF4E0919601F0919701E0937E
:100314006E01F0936F0105C0E0E0E0936E01E0939D
:100324006F01A0918A01B0918B0116D5DCF173D2D3
:10033400389776D220F46FD2349676D208F01EC065
:100344006AD272D218F4A8E8B1E091D264D268D229
:1003540018F4A8E8B1E06CD2A0918901AA232AF488
:10036400E0E0E0938801E093890192D2A030E2E0DA
:10037400BE071CF0EFEFF1E090D20EC04CD23797DD
:1003840053D220F048D237964BD230F48BD2E5E0EA
:10039400F0E042D33A9681D2E3E2F0E0E0938A01BE
:1003A400F0938B0120FC2BC036D2F29739D220F483
:1003B40032D2F29639D208F009C01BD22CD2EA1BF1
:1003C400FB0B329665D220D372D208C024D22CD231
:1003D40020F4EFEFF3E06BD201C06ED2A091830161
:1003E400AA230AF469D2A0918201B0918301A030BA
:1003F400E4E0BE071CF0EFEFF3E059D201C05CD299
:1004040061D2E0938E01F0938F0169D0E1E0F0E0D6
:100414005ED261F4A4E8B1E02AD25CD2A13EE1E06C
:10042400BE071CF0E0EEF1E05AD25ED2E2E0F0E06A
:100434004ED249F4A4E8B1E0FBD14CD2D29714F4E3
:1004440056D24DD251D2E3E0F0E041D289F4A6E78E
:10045400B1E00DD24FD2139728F0E0E0E09376019B
:10046400E09377014CD2AE0FBF1FE9D238D23CD211
:10047400E4E0F0E02CD2A9F4F8943CD2AA0FBB1F1C
:10048400AE5FBF4FDAD101D33AD2EA0FFB1F22D2BB
:10049400A083B18378943CD23BD2D7D0689425F81A
:1004A40023D2A0918C01B0918D0156D424F023FC69
:1004B40002C020FE01C004C0C8D0C7D0689423F88D
:1004C4002CD2A03AE0E0BE0708F4F6D1FBD18DD2DD
:1004D400F0E0EBBDE0918201EABDEDCEFFCF20FE5E
:1004E40002C023D209F40CC0AB98A59823D215D22C
:1004F400A13AE0E0BE0720F0E89421F820F81ED2EB
:1005040014D211F420FE01C01AC0E0E0E0936601A9
:10051400E09367010AD231F4A0916601B0916701BA
:100524001A9708F008C0E4E6F0E011D2A6E6B1E0BC
:100534009ED13197EFCFB49902C0689420F80AD2C3
:1005440031F0E0917A01F0917B01309709F405C014
:10055400E0E0E0937A01E0937B0101D231F0E09195
:100564007C01F0917D01309709F406C0ECE7F1E0DD
:10057400A0E0B0E0A083B183F7D111F030FC01C05A
:1005840002C0E89430F8B59919C0D4D1A0917A0189
:10059400B0917B01159758F4ECD1DCD111F4EDD175
:1005A40008F005C0E8E2F0E0D2D1ECD1F6CFAAE73A
:1005B400B1E05DD13197E1E0F0E05F01D0D119F411
:1005C4000A2C0B2809F018C0B5D1A0917C01B09178
:1005D4007D01159758F4CDD1C2D111F4CED108F0D4
:1005E40005C0E8E2F0E0B3D1CDD1F6CFACE7B1E09D
:1005F4003ED1E2E0F0E05F01B7D129F430FC03C062
:100604000A2C0B2809F01AC0B4D1AED129F4E8E2BF
:10061400F0E0CE16DF0608F006C08CD1689422F80C
:10062400B5D1B0D1F2CF9A9906C0E4E0F0E05F0111
:10063400689430F803C0E3E0F0E05F010A2C0B2873
:1006440019F0A4D1689422F80895C39AE0E5F0E083
:100654007ED1C3980895E0917001F09171019DD10C
:10066400E0E0F0E0E0936201F09363019BD19FD15D
:10067400A436E0E0BE0740F09FD1E456F0408DD1AF
:10068400A0E6B1E0F4D0F3CF92D11A9738F094D128
:100694003A9783D1A2E6B1E0EAD0F6CF8DD1E093C8
:1006A4006401F0936501E0916001F091610130977C
:1006B40079F4E0916201F0916301309731F4E2E65C
:1006C400F1E0AAE0B0E0A083B183EAE0F0E06AD10F
:1006D4000895C798C698C09821FE02C022FE01C0A2
:1006E40003C0E1E3F0E00FC024FE03C0E0E3F0E068
:1006F4000AC0F401A0E6B1E0EE0FFF1FAE0FBF1F6A
:100704009ED1EA5DFF4F049002BAF401309711F4D0
:10071400C69A0DC0E130A0E0FA0711F4C79A07C0E9
:10072400E230A0E0FA0719F426FC9498C09A0895E0
:10073400E6E3E8BBEBECE7BBE6E5E5BBE8E0E4BBFE
:10074400EFEFE2BBE1BBE5E0E3BFE2EBE2BFE3ECEA
:10075400EFBDE4E0EEBDE0E0EDBDECBDE7BDE6BD20
:10076400EBBDEABDE9BDE8BDE2BDE4E0E5BDE3E81B
:10077400E4BDE0E0E3BDE5BFE1E4E9BFE0E8E8B9FA
:10078400E0E0E0BFE7B9E6E8E6B96ED06ED1E13E5D
:10079400A1E0FA0798F068D0E8ECF0E076D1A2E0A6
:1007A400B0E0EAEFF0E071D1A4E0B0E0ECE2F1E017
:1007B4006CD1A6E0B0E0EEE5F1E067D1A2E0B0E0F4
:1007C40054D1E0939001F0939101A4E0B0E04DD1B5
:1007D400E0939201F0939301A6E0B0E046D1E09358
:1007E4009401F093950140D040D179D0A7D078946A
:1007F4000895A0916E01B0916F010895ED91FD915E
:1008040008953196FE93EE930895E0E0E09380011D
:10081400E09381010895E0918601F09187010895A4
:10082400E8DFEA17FB070895E4DFAE17BF07089572
:10083400E5DF3197FE93EE930895E0918401F09102
:1008440085010895A0917001B0917101EA17FB0729
:100854000895E0937001F0937101FDCEE0E0E09320
:100864007801E09379010895A0E0B0E00895C6DF2F
:10087400C8CFE0917201F09173010895A0917E01B7
:10088400B0917F010895E0918E01F0918F01089558
:10089400A0918801B09189010895E0938801F093B3
:1008A40089010895A0916C01B0916D010895E093C0
:1008B4008201F09383010895E0E0E0938201E093E4
:1008C40083010895E0918201F09183010895EA156E
:1008D400FB050895A0918401B09185010895E093EA
:1008E4008401F09385010895AA24BB240895E2E3CA
:1008F400F0E00895A0917601B09177010895E09118
:100904007601F0917701A0E9B1E0EE0FFF1F0895A1
:100914009CDEEDDFFA93EA9354C0E5E0EA93D6DB7C
:10092400E0936C01F0936D01BDCFA0E0B499A1E018
:10093400A0300895DCDFFA93EA9343C0E8E6F1E0DF
:10094400E0937401F0937501689422F80895FA9382
:10095400EA9337C0A0E0B599A1E0A0300895A0E0E3
:10096400B299A1E0A0300895A0E09A99A1E0A03046
:1009740008956BDECC24DD240895E5E0F0E0CE1686
:10098400DF060895F60131966F010895E8E3F4E077
:10099400E0937401F09375010895E0936801F09376
:1009A40069010895E0936001F09361010895A091B5
:1009B4006801B09169010895E0916801F0916901BD
:1009C4000895E991F991309639F080ED97E0019717
:1009D400F1F7A8953197C9F70895F095609570954A
:1009E400E195FF4F6F4F7F4F0895EF2FFF27E7FDEE
:1009F400FFEF08956F2F660F660B762F08958B2FE8
:100A0400880F880B982F0895FA9FF02DEB9FF00D17
:100A1400EA9FE02DF10D08950024112490E1AA0F1E
:100A2400BB1F001C111C0E1A1F0A18F40E0E1F1EE9
:100A340001C0A1609A9599F7FD01D0010895ED9147
:100A4400FC9111970895689401C0E89401D09DD059
:100A5400182E862F612D192E972F712D1B2EBF2F27
:100A6400F12D1A2EAE2FE12D0895119602D0FE2FEE
:100A74001197E199FECFFF93FFB7F894AEBBBFBBCC
:100A8400E09AEDB3FFBFFF91089507D01196EF935D
:100A9400EF2F03D0EF9111970895E19B02C0A89521
:100AA400FCCF9FB7F894AEBBBFBBE09A8DB3E817F9
:100AB40019F0EDBBE29AE19A9FBF0895552342F4E1
:100AC400503811F4E0FF04C03196691F791F6BF0B0
:100AD40050E8572711F45F93C8C05F3F31F0660FA9
:100AE400000C57956795752F08955F9300200AF0C1
:100AF400C8C0C1C050E8192E1522880F991F952728
:100B0400550F879550E8072E0522660F771F752726
:100B1400550F67950895689401C0E8945F93F2DFD8
:100B2400703818F07F3F08F4A0C056E1571BAAF4B0
:100B3400519558300EF4593030F0EFEFFFEF6FEF6E
:100B44007FE777F91AC077275523B9F0EE0FFF1F17
:100B5400661F771F5A95D1F710C07727583028F0B1
:100B6400EF2FF62F672F5850F9CF552331F0769594
:100B74006795F795E7955A95D1F700200AF42DDF8C
:100B84005F910895689401C0E89430976040704084
:100B9400B1F0002426F0772312F400941EDF172E00
:100BA4007EE1112032F07A95EE0FFF1F661F111CB3
:100BB400F9CFEF2FF62F612D5F938ADF5F910895B0
:100BC4004F93AF01FD01DA01AB01BC01CA01402D15
:100BD400012C142E4F910895EA0FFB1F681F0895EE
:100BE400E095F0956095EF5FFF4F6F4F08955F9329
:100BF40081DF903849F150E81526703821F1572FDC
:100C0400591B13F112F4DCDFFACF583118F0AA277C
:100C1400BB278827583028F0AB2FB82F8827585087
:100C2400F9CF552329F08695B795A7955A95D9F705
:100C3400502D512562F0D0DF38F46795F795E7958C
:100C4400739513F41EC0BCDF43DF5F910895EA1B64
:100C5400FB0B680B51F010F40094C2DF6623A2F37F
:100C6400EE0FFF1F661F7A95CBF7EE27FF27662747
:100C740077275F910895EFEFFFEF6FE77FEF5F91C5
:100C84000895EFEFFFEF6FE77FE75F9108955F93BC
:100C940031DF703821F411200AF4EDCFF2CF90380F
:100CA40009F4E3CF01240894970B1BF4D4F3002038
:100CB400F3CF792F1F932F933F934F931124112731
:100CC400222733274427552790E2AE17BF0786070C
:100CD400410730F0AE1BBF0B860B410B089401C0DB
:100CE4008894551F221F331F111CAA1FBB1F881F66
:100CF400441F9A9551F7F901612D4F913F912F911E
:100D04001F91662332F0550FEE1FFF1F661F7A9561
:100D140043F2D4DE5F91089599239AF0772342F049
:100D2400971748F029F4AE17BF07860720F031F073
:100D3400989488940895989408940895189488949D
:100D440008957723C2F7971798F3A9F7EA17FB07D3
:100D5400680788F399F3ECCF00240A160B0608956C
:00000001FF
