:0600000032C0FECFFDCF6F
:10000600FCCFB7C0FACFF9CFF8CFF7CF6FC0F5CF97
:10001600F4CFF3CFF2CF53C0F0CFEFCFEECFEDCF8B
:10002600505F381A1792905E1012FFBFB0BDBD0028
:1000360038041E00F401010001002D4E414E00005F
:1000460002007001360001008401380002008601BA
:100056003A00020006003C00010094013E00000048
:10006600F894EE27ECBBF1E0FBBFEBBFE5BFF8E190
:10007600F1BDE1BD8DE0A2E0BB27ED938A95E9F7DE
:1000860080E094E0A0E6ED930197E9F7E6E4F0E07E
:1000960085919591009761F0A591B5910590159080
:1000A600BF01F00105900D920197E1F7FB01F0CF3A
:1000B600EFE5EDBFE4E0EEBFC0E6D1E0EDC0EA93C8
:1000C600FA93E4B1F5B158D3F991E9911895E8811D
:1000D600E7B98BE18A95F1F7E5B7EF78E069E5BF17
:1000E6008895EF77E5BF4DD3219608950A92AA9396
:1000F600BA93EA93FA93EFB7EA93E2EBE2BFF3011E
:1001060031973F01062C072859F4E9E1F0E03F0159
:10011600E0916A01F0916B01E0936E01F0936F013B
:1001260035D3349738D33CD320F43DD310F421FE95
:1001360001C004C0A8E8B1E03CD310C0E0E9F1E09A
:10014600E0938801F093890121D33F9738D320F0BB
:100156001DD33F9638D310F4E89421F8A6E8B1E011
:1001660028D3E991EFBFF991E991B991A991099045
:1001760018950A921A92FA926A937A938A939A93A4
:10018600AA93BA93EA93FA93EFB7EA93E3E8E4BD46
:10019600082C092809F068C020FE2CC016D31AD3F3
:1001A60011F013D31CD3A0E7B1E003D3E0917001A3
:1001B600F0917101309769F4E89422F823F820F859
:1001C60013D303D3E0938201F0938301FED212D3BB
:1001D60021D423FE0EC0A4E7B1E00FD3A091740191
:1001E600B0917501AA35E0E0BE0719F4FDD2E4E04E
:1001F6002E2605C008D3EED211F005D3F0D2AAE719
:10020600B1E0FBD2A0917A01B0917B01139761F521
:10021600E0E0E0937A01E0937B01ACE7B1E0EDD258
:10022600F7D2A436E0E0BE0759F4E0E0E0937C01A3
:10023600E0937D01F2D2309711F0689424F814C04F
:10024600ECD28AD366D4DF01CB01E4E1FEEA63E2B5
:1002560071E48DD4DDD288279927BCD3CDD409F09B
:1002660008F402C0E89424F8F3D1F40131964F0162
:10027600D9D2E815F90510F488249924E991EFBF3D
:10028600F991E991B991A991999189917991699198
:10029600F99019900990189508D2E0E0EA9317DFD3
:1002A6006BD2A0916801B0916901AF3FE3E0BE0750
:1002B60029F0A0E0B499A1E0A03011F0689406C03E
:1002C60025FE05C0E8EEF3E0B0D2E89425F859D251
:1002D600662777271ED4DF01CB01E0E0F0E060EC73
:1002E6007FE345D4AAE6B1E0DBD3ED93FC93A0917E
:1002F6008601B0918701A0D40CF449C047D2389743
:1003060062D210F450D208F021C040D258D218F46C
:10031600A4E8B1E072D23AD256D218F4A4E8B1E019
:1003260048D2A0918501AA232AF4E0E0E093840153
:10033600E09385017DD2A030E2E0BE0734F0EFEF16
:10034600F1E0E0938401F09385011BC076D2A739D2
:10035600E0E0BE0744F01AD2B49735D220F416D2A4
:10036600B4962DD208F007C068D2A659B0405AD22A
:1003760018D37E9602C0EEE1F0E0E0938401F0939C
:100386008501E9E1F0E0E0938601F093870125FC21
:100396002BC0FCD1F29717D220F4F8D1F2960FD2E7
:1003A60008F009C0F8D1F2D1EA1BFB0B329640D215
:1003B600DDD248D208C0EAD102D220F4EFEFF3E052
:1003C60041D201C044D2A0917F01AA230AF43FD2B0
:1003D600A0917E01B0917F01A030E4E0BE071CF041
:1003E600EFEFF3E02FD201C032D237D2E0938A0189
:1003F600F0938B0164D0E1E0F0E034D261F4A0E840
:10040600B1E0FBD132D2A13EE1E0BE071CF0E0EE46
:10041600F1E030D234D206D225D249F4A0E8B1E0D8
:10042600C8D123D2D29714F42DD224D228D2E3E015
:10043600F0E018D289F4A2E7B1E0DFD126D2139713
:1004460028F0E0E0E0937201E093730123D2AE0F4F
:10045600BF1FBAD20FD213D2E4E0F0E003D2B9F450
:10046600F89413D2AA0FBB1FAE5FBF4FAED1D2D244
:1004760011D2EA0FFB1FF9D1A083B1837894A4D0DF
:1004860012D2A2D010D2A0D0689423F8F8D1A091AD
:100496008801B0918901D0D324F021FC02C025FE49
:1004A60001C004C091D090D0689421F8D6D14FD223
:1004B600F0E0EBBDE0917E01EABDEFCEFFCFF5D1D6
:1004C60009F081C0F5D131F0E0917601F091770124
:1004D600309709F405C0E0E0E0937601E0937701F8
:1004E600ECD131F0E0917801F0917901309709F47F
:1004F60006C0E8E7F1E0A0E0B0E0A083B183E2D176
:1005060011F026FC01C002C0E89426F8B59919C07E
:10051600CAD1A0917601B0917701159758F4D7D139
:10052600C7D111F4D8D108F005C0E8E2F0E07DD1DA
:10053600D7D1F6CFA6E7B1E060D13197E1E0F0E0A0
:100546005F01BBD111F4B1D109F017C0ACD1A091B4
:100556007801B0917901159758F4B9D1AED111F45B
:10056600BAD108F005C0E8E2F0E05FD1B9D1F6CF24
:10057600A8E7B1E042D156D15F01A4D121F426FC0F
:1005860002C093D109F01AC0A2D19CD129F4E8E2A5
:10059600F0E0CE16DF0608F006C085D1689420F894
:1005A600A3D19ED1F2CF9A9906C0E4E0F0E05F01B4
:1005B600689426F803C0E3E0F0E05F0176D119F015
:1005C60093D1689420F80895C39AE0E5F0E02DD120
:1005D600C3980895E0916C01F0916D018CD1E0E033
:1005E600F0E0E0936201F09363018AD18ED1A436E4
:1005F600E0E0BE0740F08ED1E456F0407CD1A0E6A4
:10060600B1E0FBD0F3CF81D11A9738F083D13A9776
:1006160072D1A2E6B1E0F1D0F6CF7CD1E0936401CD
:10062600F0936501E0916001F0916101309779F4F2
:10063600E0916201F0916301309731F4E2E6F1E076
:10064600AAE0B0E0A083B183EAE0F0E059D10895D2
:10065600C798C698C09825FE04C0F401EE5CFF4F0B
:100666000FC022FE03C0E0E3F0E00AC0F401A0E6FA
:10067600B1E0EE0FFF1FAE0FBF1FA6D1EA5DFF4F21
:10068600049002BAF401309711F4C69A0DC0E13015
:10069600A0E0FA0711F4C79A07C0E230A0E0FA0713
:1006A60019F424FC9498C09A0895E6E3E8BBEBECB1
:1006B600E7BBEEE7E5BBE0E0E4BBEFEFE2BBE1BBA7
:1006C600E5E0E3BFE2EBE2BFE3ECEFBDE4E0EEBD65
:1006D600E0E0EDBDECBDE7BDE6BDEBBDEABDE9BDC5
:1006E600E8BDE2BDE4E0E5BDE3E8E4BDE0E0E3BD8E
:1006F600E5BFE1E4E9BFE0E8E8B9E0E0E0BFE7B97B
:10070600EEE8E6B977D0A13EE1E0BE0798F072D0F8
:10071600E8ECF0E07FD1A2E0B0E0EAEFF0E07AD1D9
:10072600A4E0B0E0ECE2F1E075D1A6E0B0E0EEE5E1
:10073600F1E070D1A2E0B0E05DD1E0938C01F093DE
:100746008D01A4E0B0E056D1E0938E01F0938F01C5
:10075600A6E0B0E04FD1E0939001F09391014AD02A
:1007660049D188D0E8E6F1E0E0937001F093710199
:10077600689420F878940895E0936801F0936901ED
:100786000895E0916801F09169010895E091820170
:10079600F09183010895A0916A01B0916B010895CB
:1007A600EA17FB070895F2DF3496F5DFAE17BF07A9
:1007B6000895ED91FD913197FE93EE930895EBDF49
:1007C600AE17BF070895E7DFEBCFE0918001F09108
:1007D60081010895A0916C01B0916D01E1CFE09384
:1007E6006C01F0936D01F6CEE0E0E0937401E093C6
:1007F60075010895A0E0B0E00895ED91FD91319660
:10080600FE93EE930895E0916E01F0916F010895C5
:10081600A0917C01B0917D010895E0918A01F0914B
:100826008B010895E2E0F0E00895FA93EA9377C029
:10083600A0918401B09185010895A0918201B091A3
:1008460083010895E0937E01F0937F010895E0E02F
:10085600E0937E01E0937F010895E0917E01F0919F
:100866007F010895EA15FB050895A0918001B091D6
:1008760081010895E0938001F09381010895AA24EF
:10088600BB240895E2E3F0E00895A0917201B091CF
:1008960073010895E0917201F0917301ACE8B1E043
:1008A600EE0FFF1F0895EEDFC0CF0A2C0B28089528
:1008B600A0E0B599A1E0A0300895A0E0B299A1E02A
:1008C600A0300895A0E09A99A1E0A03008957CDEBA
:1008D600CC24DD240895E5E0F0E0CE16DF06089589
:1008E600F60131966F010895E8E3F4E0E0937001B4
:1008F600F09371010895E0936601F09367010895FE
:10090600E0936001F09361010895A0916601B091B2
:1009160067010895E0916601F09167010895E991F4
:10092600F991309639F080ED97E00197F1F7A895A7
:100936003197C9F70895F195E195F0400895F0953E
:1009460060957095E195FF4F6F4F7F4F0895EF2F9C
:10095600FF27E7FDFFEF08956F2F660F660B762FD3
:1009660008958B2F880F880B982F0895FA9FF02DE6
:10097600EB9FF00DEA9FE02DF10D08950024112460
:1009860090E1AA0FBB1F001C111C0E1A1F0A18F4B7
:100996000E0E1F1E01C0A1609A9599F7FD01D001A8
:1009A600089504D0EBDF0EF4C6DF0895E894F7FF50
:1009B60002C0C1DF6894B7FF06C0A095B095119636
:1009C60000F8039400FA0895ED91FC9111970895AB
:1009D600689401C0E89401D09DD0182E862F612D11
:1009E600192E972F712D1B2EBF2FF12D1A2EAE2FDC
:1009F600E12D0895119602D0FE2F1197E199FECFB1
:100A0600FF93FFB7F894AEBBBFBBE09AEDB3FFBF51
:100A1600FF91089507D01196EF93EF2F03D0EF9132
:100A260011970895E19B02C0A895FCCF9FB7F89453
:100A3600AEBBBFBBE09A8DB3E81719F0EDBBE29AE7
:100A4600E19A9FBF0895552342F4503811F4E0FF10
:100A560004C03196691F791F6BF050E8572711F4CF
:100A66005F9373C05F3F31F0660F000C5795679533
:100A7600752F08955F9300200AF073C06CC050E88C
:100A8600192E1522880F991F9527550F879550E81F
:100A9600072E0522660F771F7527550F6795089550
:100AA600689401C0E8945F93F2DF703818F07F3FD6
:100AB60008F44BC056E1571BAAF4519558300EF472
:100AC600593030F0EFEFFFEF6FEF7FE777F91AC09D
:100AD60077275523B9F0EE0FFF1F661F771F5A952C
:100AE600D1F710C07727583028F0EF2FF62F672F51
:100AF6005850F9CF552331F076956795F795E795D8
:100B06005A95D1F700200AF41ADF5F910895689488
:100B160001C0E894309760407040B1F0002426F0A0
:100B2600772312F400940BDF172E7EE1112032F0AA
:100B36007A95EE0FFF1F661F111CF9CFEF2FF62FC8
:100B4600612D5F938ADF5F910895EE27FF27662761
:100B560077275F910895EFEFFFEF6FE77FEF5F91E4
:100B66000895EFEFFFEF6FE77FE75F9108955F93DB
:100B760086DF703821F411200AF4EDCFF2CF9038D9
:100B860009F4E3CF01240894970B1BF4D4F3002057
:100B9600F3CF792F1F932F933F934F931124112750
:100BA600222733274427552790E2AE17BF0786072B
:100BB600410730F0AE1BBF0B860B410B089401C0FA
:100BC6008894551F221F331F111CAA1FBB1F881F85
:100BD600441F9A9551F7F901612D4F913F912F913D
:100BE6001F91662332F0550FEE1FFF1F661F7A9581
:100BF60043F229DF5F91089599239AF0772342F013
:100C0600971748F029F4AE17BF07860720F031F092
:100C160098948894089598940894089518948894BC
:100C260008957723C2F7971798F3A9F7EA17FB07F2
:100C3600680788F399F3ECCF00240A160B0608958B
:00000001FF
