:100000001AC03EC03DC03CC03BC03AC039C038C039
:1000100037C036C035C034C033C032C031C030C044
:100020002FC02EC02DC02CC02BC02AC029C028C074
:1000300027C026C0900211241FBECFEFD2E0DEBF42
:10004000CDBF11E0A0E0B1E0E0E6F7E002C005902E
:100050000D92A834B107D9F721E0A8E4B1E001C0BE
:100060001D92AE36B207E1F710E0CBE1D0E003C05D
:100070002197FE0146D3CA31D107D1F72ED16EC3E5
:10008000BFCFF894A89584B7877F84BFE0E6F0E0FF
:1000900080818861808310820895A89584B78860E4
:1000A00084BFE0E6F0E080818861808389E280831C
:1000B00008950F931F93FC019B01683E734010F05D
:1000C00027EE33E0C90164E670E0CFD28B01611501
:1000D000710519F080E3860F01C080E2808301156D
:1000E000110541F04CE94003C001419F900D1124DE
:1000F000280F391FC9016AE070E0B7D2862F61115D
:1001000002C0012B19F090E3960F01C090E2918399
:10011000882329F08AE0689F201931091124205D85
:1001200022831F910F910895DC011C968C911C97DE
:10013000833018F01C961C921C971C968C911C976F
:10014000FD01E80FF11DE081ED52E83428F4F0E004
:10015000E050FF4F808101C080E095B19E7395B95A
:1001600020E030E090E0AC01022E02C055954795AA
:100170000A94E2F74170552761E046272330E9F001
:1001800028F4213071F0223091F005C0253009F1BA
:10019000D0F0263021F1452B11F0589A25C05898FF
:1001A00023C0452B11F05F9A1FC05F981DC0452BDF
:1001B00011F05D9A19C05D9817C0452B11F05A9A3D
:1001C00013C05A9811C0452B11F0599A0DC0599877
:1001D0000BC0452B11F05B9A07C05B9805C0452BFF
:1001E00011F05E9A01C05E982F5F3F4F27303105B6
:1001F00009F0B9CF1C968C911C97FD01E80FF11DF9
:100200008585811102C05C9A01C05C981C968C9116
:10021000813031F018F0823029F008952E9A089537
:100220002F9A0895289A0895CF93DF93EC01809137
:100230007A0086FD4FC080917C008F7009F043C02A
:10024000409178005091790028813981C901880F47
:10025000991F280F391F440F551F440F551F240F96
:10026000351F369527953695279539832883109223
:100270007C0080917A00806580937A0028813981A2
:10028000A4ECB9E028D22FEF3FE040E050E001D2EB
:10029000CA01B9012A813B81283D3E4028F028E16E
:1002A00031E040E050E004C027E031E040E050E0C1
:1002B000CDD124E630E040E050E0EBD128533F4F71
:1002C0003B832A8307C010927C0080917A0080656E
:1002D00080937A00DF91CF910895CF93DF93CDB7CC
:1002E000DEB72897DEBFCDBFCCDED7DEF89417B8D7
:1002F0008EEF88B983EC84B984E385B98FEF8AB92E
:100300001BB880E090E003D28A3B9B4A39F482E03C
:1003100090E0FDD190935701809356011092800098
:1003200085E08093810010926F0086E880937A00C8
:1003300010927B0068EE73E0CE0105963CD164E13B
:1003400070E0CE01019678D18DE2B82EAA24A39454
:100350009AE0792E2AE0E22EF12C34EFC32EDD2430
:10036000D3948FE591E005D1882341F08CE591E0AD
:10037000DBDE809168018F5F8093680188E591E002
:1003800053DF82E591E0F5D08823B9F14091670110
:100390001C99B4C02091560130915701729E4001C2
:1003A000739E900C112400915A0110915B01C801B9
:1003B0000596B7015AD1C90105978617970728F402
:1003C0000F966817790708F4B901442349F083E6CA
:1003D00091E008D191E0811190E09093670103C012
:1003E0008CE591E066DE0815190518F0299A80E081
:1003F00002C0299881E080936B0188E491E0B9D034
:10040000882309F44CC003B105FB002700F90A2535
:1004100013B112FB112710F91A25011106C029F496
:1004200010925101109250013AC08CE491E0A1D099
:100430006091500170915101811103C061157105E6
:1004400071F5002369F08091560190915701803E2B
:1004500021E0920728F4019690935701809356016A
:1004600011113EC06F5F7F4F709351016093500137
:10047000C601FBD06233710510F462E370E08CE4D6
:1004800091E099D0009156011091570183E691E0D7
:10049000CBD0A0926701B8018CE591E00ADECE01D5
:1004A0000196A0D0882361F06AEB7BEA80E090E0BF
:1004B00032D1609156017091570182E090E02BD1CA
:1004C000CE01059656D0882349F080916C01909119
:1004D0006D01019690936D0180936C01A89541CFB9
:1004E0008091560190915701893C910508F4BACF4B
:1004F00001979093570180935601B4CF442349F05C
:1005000083E691E06FD091E0811190E090936701D4
:100510006DCFB0925E01B0925D01B0925C0166CF8A
:1005200063E070E08FE591E046D063E070E083E641
:1005300091E082D0ECE5F1E01386178616861586E9
:10054000109259011092580164E670E082E591E042
:1005500032D088EC90E0909357018093560164E18B
:1005600070E088E491E027D064EF71E08CE491E0E2
:1005700022C0FC01409184005091850082819381CA
:100580009A014817590710F421503109281B390BDB
:10059000808191812817390760F0281B390B29F0D9
:1005A0002817390710F4421B530B5383428381E011
:1005B000089580E00895CF93DF93EC019B01A4E8B8
:1005C000BEE189D028EE33E040E050E062D03983CC
:1005D000288380918400909185009B838A83DF919A
:1005E000CF910895FC0140916C0150916D01828181
:1005F00093819A014817590710F421503109281B9B
:10060000390B808191812817390760F0281B390B3D
:1006100029F02817390710F4421B530B53834283E8
:1006200081E0089580E0089520916C0130916D0182
:10063000FC01338322830895FC0171836083209140
:100640006C0130916D01338322830895DB018F9318
:100650009F934DD0BF91AF91A29F800D911DA39FFD
:10066000900DB29F900D11240895AA1BBB1B51E160
:1006700007C0AA1FBB1FA617B70710F0A61BB70B12
:10068000881F991F5A95A9F780959095BC01CD01B7
:100690000895A1E21A2EAA1BBB1BFD010DC0AA1FC3
:1006A000BB1FEE1FFF1FA217B307E407F50720F0DB
:1006B000A21BB30BE40BF50B661F771F881F991F56
:1006C0001A9469F760957095809590959B01AC019F
:1006D000BD01CF010895A29FB001B39FC001A39FA8
:1006E00001D0B29F700D811D1124911D0895F3DF7B
:1006F000A59F900DB49F900DA49F800D911D112476
:100700000895EE0FFF1F0590F491E02D0994A8E1E4
:10071000B0E042E006C00196272F10D00EC0DC01E9
:10072000862FE82FF999FECF05C0E1BDF89AE39531
:1007300000B40D924150C8F70895262FF999FECFC5
:1007400081BDF89A815000B4021639F01FBA20BD5D
:100750000FB6F894FA9AF99A0FBE0895F894FFCF5D
:100760004000003F065B4F666D7D077F6F00000015
:100770000000000000000000000000000000000079
:100780000000000000000000000000000000000069
:1007900000000000000000000000007400000000E5
:0807A0000000000000000078D9
:00000001FF
